{
  "_format": "hh-sol-artifact-1",
  "contractName": "DestripeCollection",
  "sourceName": "contracts/DestripeCollection.sol",
  "abi": [
    {
      "inputs": [],
      "stateMutability": "nonpayable",
      "type": "constructor"
    },
    {
      "inputs": [
        {
          "internalType": "address",
          "name": "sender",
          "type": "address"
        },
        {
          "internalType": "uint256",
          "name": "tokenId",
          "type": "uint256"
        },
        {
          "internalType": "address",
          "name": "owner",
          "type": "address"
        }
      ],
      "name": "ERC721IncorrectOwner",
      "type": "error"
    },
    {
      "inputs": [
        {
          "internalType": "address",
          "name": "operator",
          "type": "address"
        },
        {
          "internalType": "uint256",
          "name": "tokenId",
          "type": "uint256"
        }
      ],
      "name": "ERC721InsufficientApproval",
      "type": "error"
    },
    {
      "inputs": [
        {
          "internalType": "address",
          "name": "approver",
          "type": "address"
        }
      ],
      "name": "ERC721InvalidApprover",
      "type": "error"
    },
    {
      "inputs": [
        {
          "internalType": "address",
          "name": "operator",
          "type": "address"
        }
      ],
      "name": "ERC721InvalidOperator",
      "type": "error"
    },
    {
      "inputs": [
        {
          "internalType": "address",
          "name": "owner",
          "type": "address"
        }
      ],
      "name": "ERC721InvalidOwner",
      "type": "error"
    },
    {
      "inputs": [
        {
          "internalType": "address",
          "name": "receiver",
          "type": "address"
        }
      ],
      "name": "ERC721InvalidReceiver",
      "type": "error"
    },
    {
      "inputs": [
        {
          "internalType": "address",
          "name": "sender",
          "type": "address"
        }
      ],
      "name": "ERC721InvalidSender",
      "type": "error"
    },
    {
      "inputs": [
        {
          "internalType": "uint256",
          "name": "tokenId",
          "type": "uint256"
        }
      ],
      "name": "ERC721NonexistentToken",
      "type": "error"
    },
    {
      "inputs": [
        {
          "internalType": "address",
          "name": "owner",
          "type": "address"
        }
      ],
      "name": "OwnableInvalidOwner",
      "type": "error"
    },
    {
      "inputs": [
        {
          "internalType": "address",
          "name": "account",
          "type": "address"
        }
      ],
      "name": "OwnableUnauthorizedAccount",
      "type": "error"
    },
    {
      "anonymous": false,
      "inputs": [
        {
          "indexed": true,
          "internalType": "address",
          "name": "owner",
          "type": "address"
        },
        {
          "indexed": true,
          "internalType": "address",
          "name": "approved",
          "type": "address"
        },
        {
          "indexed": true,
          "internalType": "uint256",
          "name": "tokenId",
          "type": "uint256"
        }
      ],
      "name": "Approval",
      "type": "event"
    },
    {
      "anonymous": false,
      "inputs": [
        {
          "indexed": true,
          "internalType": "address",
          "name": "owner",
          "type": "address"
        },
        {
          "indexed": true,
          "internalType": "address",
          "name": "operator",
          "type": "address"
        },
        {
          "indexed": false,
          "internalType": "bool",
          "name": "approved",
          "type": "bool"
        }
      ],
      "name": "ApprovalForAll",
      "type": "event"
    },
    {
      "anonymous": false,
      "inputs": [
        {
          "indexed": true,
          "internalType": "address",
          "name": "previousOwner",
          "type": "address"
        },
        {
          "indexed": true,
          "internalType": "address",
          "name": "newOwner",
          "type": "address"
        }
      ],
      "name": "OwnershipTransferred",
      "type": "event"
    },
    {
      "anonymous": false,
      "inputs": [
        {
          "indexed": true,
          "internalType": "address",
          "name": "from",
          "type": "address"
        },
        {
          "indexed": true,
          "internalType": "address",
          "name": "to",
          "type": "address"
        },
        {
          "indexed": true,
          "internalType": "uint256",
          "name": "tokenId",
          "type": "uint256"
        }
      ],
      "name": "Transfer",
      "type": "event"
    },
    {
      "inputs": [
        {
          "internalType": "address",
          "name": "to",
          "type": "address"
        },
        {
          "internalType": "uint256",
          "name": "tokenId",
          "type": "uint256"
        }
      ],
      "name": "approve",
      "outputs": [],
      "stateMutability": "nonpayable",
      "type": "function"
    },
    {
      "inputs": [],
      "name": "authorizedContract",
      "outputs": [
        {
          "internalType": "address",
          "name": "",
          "type": "address"
        }
      ],
      "stateMutability": "view",
      "type": "function"
    },
    {
      "inputs": [
        {
          "internalType": "address",
          "name": "owner",
          "type": "address"
        }
      ],
      "name": "balanceOf",
      "outputs": [
        {
          "internalType": "uint256",
          "name": "",
          "type": "uint256"
        }
      ],
      "stateMutability": "view",
      "type": "function"
    },
    {
      "inputs": [],
      "name": "baseURI",
      "outputs": [
        {
          "internalType": "string",
          "name": "",
          "type": "string"
        }
      ],
      "stateMutability": "view",
      "type": "function"
    },
    {
      "inputs": [
        {
          "internalType": "uint256",
          "name": "tokenId",
          "type": "uint256"
        }
      ],
      "name": "burn",
      "outputs": [],
      "stateMutability": "nonpayable",
      "type": "function"
    },
    {
      "inputs": [
        {
          "internalType": "uint256",
          "name": "tokenId",
          "type": "uint256"
        }
      ],
      "name": "getApproved",
      "outputs": [
        {
          "internalType": "address",
          "name": "",
          "type": "address"
        }
      ],
      "stateMutability": "view",
      "type": "function"
    },
    {
      "inputs": [],
      "name": "getLastTokenId",
      "outputs": [
        {
          "internalType": "uint256",
          "name": "",
          "type": "uint256"
        }
      ],
      "stateMutability": "view",
      "type": "function"
    },
    {
      "inputs": [
        {
          "internalType": "address",
          "name": "owner",
          "type": "address"
        },
        {
          "internalType": "address",
          "name": "operator",
          "type": "address"
        }
      ],
      "name": "isApprovedForAll",
      "outputs": [
        {
          "internalType": "bool",
          "name": "",
          "type": "bool"
        }
      ],
      "stateMutability": "view",
      "type": "function"
    },
    {
      "inputs": [],
      "name": "name",
      "outputs": [
        {
          "internalType": "string",
          "name": "",
          "type": "string"
        }
      ],
      "stateMutability": "view",
      "type": "function"
    },
    {
      "inputs": [],
      "name": "owner",
      "outputs": [
        {
          "internalType": "address",
          "name": "",
          "type": "address"
        }
      ],
      "stateMutability": "view",
      "type": "function"
    },
    {
      "inputs": [
        {
          "internalType": "uint256",
          "name": "tokenId",
          "type": "uint256"
        }
      ],
      "name": "ownerOf",
      "outputs": [
        {
          "internalType": "address",
          "name": "",
          "type": "address"
        }
      ],
      "stateMutability": "view",
      "type": "function"
    },
    {
      "inputs": [],
      "name": "renounceOwnership",
      "outputs": [],
      "stateMutability": "nonpayable",
      "type": "function"
    },
    {
      "inputs": [
        {
          "internalType": "address",
          "name": "customer",
          "type": "address"
        }
      ],
      "name": "safeMint",
      "outputs": [
        {
          "internalType": "uint256",
          "name": "",
          "type": "uint256"
        }
      ],
      "stateMutability": "nonpayable",
      "type": "function"
    },
    {
      "inputs": [
        {
          "internalType": "address",
          "name": "from",
          "type": "address"
        },
        {
          "internalType": "address",
          "name": "to",
          "type": "address"
        },
        {
          "internalType": "uint256",
          "name": "tokenId",
          "type": "uint256"
        }
      ],
      "name": "safeTransferFrom",
      "outputs": [],
      "stateMutability": "nonpayable",
      "type": "function"
    },
    {
      "inputs": [
        {
          "internalType": "address",
          "name": "from",
          "type": "address"
        },
        {
          "internalType": "address",
          "name": "to",
          "type": "address"
        },
        {
          "internalType": "uint256",
          "name": "tokenId",
          "type": "uint256"
        },
        {
          "internalType": "bytes",
          "name": "data",
          "type": "bytes"
        }
      ],
      "name": "safeTransferFrom",
      "outputs": [],
      "stateMutability": "nonpayable",
      "type": "function"
    },
    {
      "inputs": [
        {
          "internalType": "address",
          "name": "operator",
          "type": "address"
        },
        {
          "internalType": "bool",
          "name": "approved",
          "type": "bool"
        }
      ],
      "name": "setApprovalForAll",
      "outputs": [],
      "stateMutability": "nonpayable",
      "type": "function"
    },
    {
      "inputs": [
        {
          "internalType": "address",
          "name": "newAuthContract",
          "type": "address"
        }
      ],
      "name": "setAuthorizedContract",
      "outputs": [],
      "stateMutability": "nonpayable",
      "type": "function"
    },
    {
      "inputs": [
        {
          "internalType": "string",
          "name": "newURI",
          "type": "string"
        }
      ],
      "name": "setBaseURI",
      "outputs": [],
      "stateMutability": "nonpayable",
      "type": "function"
    },
    {
      "inputs": [
        {
          "internalType": "bytes4",
          "name": "interfaceId",
          "type": "bytes4"
        }
      ],
      "name": "supportsInterface",
      "outputs": [
        {
          "internalType": "bool",
          "name": "",
          "type": "bool"
        }
      ],
      "stateMutability": "view",
      "type": "function"
    },
    {
      "inputs": [],
      "name": "symbol",
      "outputs": [
        {
          "internalType": "string",
          "name": "",
          "type": "string"
        }
      ],
      "stateMutability": "view",
      "type": "function"
    },
    {
      "inputs": [
        {
          "internalType": "uint256",
          "name": "tokenId",
          "type": "uint256"
        }
      ],
      "name": "tokenURI",
      "outputs": [
        {
          "internalType": "string",
          "name": "",
          "type": "string"
        }
      ],
      "stateMutability": "view",
      "type": "function"
    },
    {
      "inputs": [
        {
          "internalType": "address",
          "name": "from",
          "type": "address"
        },
        {
          "internalType": "address",
          "name": "to",
          "type": "address"
        },
        {
          "internalType": "uint256",
          "name": "tokenId",
          "type": "uint256"
        }
      ],
      "name": "transferFrom",
      "outputs": [],
      "stateMutability": "nonpayable",
      "type": "function"
    },
    {
      "inputs": [
        {
          "internalType": "address",
          "name": "newOwner",
          "type": "address"
        }
      ],
      "name": "transferOwnership",
      "outputs": [],
      "stateMutability": "nonpayable",
      "type": "function"
    }
  ],
  "bytecode": "0x60806040526040518060400160405280601c81526020017f68747470733a2f2f6c6f63616c686f73743a333030302f6e6674732f00000000815250600990816100489190610482565b5034801561005557600080fd5b50336040518060400160405280600881526020017f44657374726970650000000000000000000000000000000000000000000000008152506040518060400160405280600381526020017f445343000000000000000000000000000000000000000000000000000000000081525081600090816100d29190610482565b5080600190816100e29190610482565b505050600073ffffffffffffffffffffffffffffffffffffffff168173ffffffffffffffffffffffffffffffffffffffff16036101575760006040517f1e4fbdf700000000000000000000000000000000000000000000000000000000815260040161014e9190610595565b60405180910390fd5b6101668161016c60201b60201c565b506105b0565b6000600660009054906101000a900473ffffffffffffffffffffffffffffffffffffffff16905081600660006101000a81548173ffffffffffffffffffffffffffffffffffffffff021916908373ffffffffffffffffffffffffffffffffffffffff1602179055508173ffffffffffffffffffffffffffffffffffffffff168173ffffffffffffffffffffffffffffffffffffffff167f8be0079c531659141344cd1fd0a4f28419497f9722a3daafe3b4186f6b6457e060405160405180910390a35050565b600081519050919050565b7f4e487b7100000000000000000000000000000000000000000000000000000000600052604160045260246000fd5b7f4e487b7100000000000000000000000000000000000000000000000000000000600052602260045260246000fd5b600060028204905060018216806102b357607f821691505b6020821081036102c6576102c561026c565b5b50919050565b60008190508160005260206000209050919050565b60006020601f8301049050919050565b600082821b905092915050565b60006008830261032e7fffffffffffffffffffffffffffffffffffffffffffffffffffffffffffffffff826102f1565b61033886836102f1565b95508019841693508086168417925050509392505050565b6000819050919050565b6000819050919050565b600061037f61037a61037584610350565b61035a565b610350565b9050919050565b6000819050919050565b61039983610364565b6103ad6103a582610386565b8484546102fe565b825550505050565b600090565b6103c26103b5565b6103cd818484610390565b505050565b5b818110156103f1576103e66000826103ba565b6001810190506103d3565b5050565b601f82111561043657610407816102cc565b610410846102e1565b8101602085101561041f578190505b61043361042b856102e1565b8301826103d2565b50505b505050565b600082821c905092915050565b60006104596000198460080261043b565b1980831691505092915050565b60006104728383610448565b9150826002028217905092915050565b61048b82610232565b67ffffffffffffffff8111156104a4576104a361023d565b5b6104ae825461029b565b6104b98282856103f5565b600060209050601f8311600181146104ec57600084156104da578287015190505b6104e48582610466565b86555061054c565b601f1984166104fa866102cc565b60005b82811015610522578489015182556001820191506020850194506020810190506104fd565b8683101561053f578489015161053b601f891682610448565b8355505b6001600288020188555050505b505050505050565b600073ffffffffffffffffffffffffffffffffffffffff82169050919050565b600061057f82610554565b9050919050565b61058f81610574565b82525050565b60006020820190506105aa6000830184610586565b92915050565b612914806105bf6000396000f3fe608060405234801561001057600080fd5b506004361061014d5760003560e01c806370a08231116100c3578063a22cb4651161007c578063a22cb4651461038a578063a6591cdf146103a6578063b88d4fde146103c4578063c87b56dd146103e0578063e985e9c514610410578063f2fde38b146104405761014d565b806370a08231146102da578063715018a61461030a57806383c4c00d146103145780638da5cb5b1461033257806395d89b41146103505780639aad69e71461036e5761014d565b806340d097c31161011557806340d097c31461020857806342842e0e1461023857806342966c681461025457806355f804b3146102705780636352211e1461028c5780636c0360eb146102bc5761014d565b806301ffc9a71461015257806306fdde0314610182578063081812fc146101a0578063095ea7b3146101d057806323b872dd146101ec575b600080fd5b61016c60048036038101906101679190611cec565b61045c565b6040516101799190611d34565b60405180910390f35b61018a61053e565b6040516101979190611ddf565b60405180910390f35b6101ba60048036038101906101b59190611e37565b6105d0565b6040516101c79190611ea5565b60405180910390f35b6101ea60048036038101906101e59190611eec565b6105ec565b005b61020660048036038101906102019190611f2c565b610602565b005b610222600480360381019061021d9190611f7f565b610704565b60405161022f9190611fbb565b60405180910390f35b610252600480360381019061024d9190611f2c565b61082d565b005b61026e60048036038101906102699190611e37565b61084d565b005b61028a6004803603810190610285919061203b565b610861565b005b6102a660048036038101906102a19190611e37565b61087f565b6040516102b39190611ea5565b60405180910390f35b6102c4610891565b6040516102d19190611ddf565b60405180910390f35b6102f460048036038101906102ef9190611f7f565b61091f565b6040516103019190611fbb565b60405180910390f35b6103126109d9565b005b61031c6109ed565b6040516103299190611fbb565b60405180910390f35b61033a6109f7565b6040516103479190611ea5565b60405180910390f35b610358610a21565b6040516103659190611ddf565b60405180910390f35b61038860048036038101906103839190611f7f565b610ab3565b005b6103a4600480360381019061039f91906120b4565b610aff565b005b6103ae610b16565b6040516103bb9190611ea5565b60405180910390f35b6103de60048036038101906103d99190612224565b610b3c565b005b6103fa60048036038101906103f59190611e37565b610b61565b6040516104079190611ddf565b60405180910390f35b61042a600480360381019061042591906122a7565b610b9b565b6040516104379190611d34565b60405180910390f35b61045a60048036038101906104559190611f7f565b610c2f565b005b60007f80ac58cd000000000000000000000000000000000000000000000000000000007bffffffffffffffffffffffffffffffffffffffffffffffffffffffff1916827bffffffffffffffffffffffffffffffffffffffffffffffffffffffff1916148061052757507f5b5e139f000000000000000000000000000000000000000000000000000000007bffffffffffffffffffffffffffffffffffffffffffffffffffffffff1916827bffffffffffffffffffffffffffffffffffffffffffffffffffffffff1916145b80610537575061053682610cb5565b5b9050919050565b60606000805461054d90612316565b80601f016020809104026020016040519081016040528092919081815260200182805461057990612316565b80156105c65780601f1061059b576101008083540402835291602001916105c6565b820191906000526020600020905b8154815290600101906020018083116105a957829003601f168201915b5050505050905090565b60006105db82610d1f565b506105e582610da7565b9050919050565b6105fe82826105f9610de4565b610dec565b5050565b600073ffffffffffffffffffffffffffffffffffffffff168273ffffffffffffffffffffffffffffffffffffffff16036106745760006040517f64a0ae9200000000000000000000000000000000000000000000000000000000815260040161066b9190611ea5565b60405180910390fd5b60006106888383610683610de4565b610dfe565b90508373ffffffffffffffffffffffffffffffffffffffff168173ffffffffffffffffffffffffffffffffffffffff16146106fe578382826040517f64283d7b0000000000000000000000000000000000000000000000000000000081526004016106f593929190612347565b60405180910390fd5b50505050565b600061070e6109f7565b73ffffffffffffffffffffffffffffffffffffffff163373ffffffffffffffffffffffffffffffffffffffff1614806107945750600860009054906101000a900473ffffffffffffffffffffffffffffffffffffffff1673ffffffffffffffffffffffffffffffffffffffff163373ffffffffffffffffffffffffffffffffffffffff16145b6107d3576040517f08c379a00000000000000000000000000000000000000000000000000000000081526004016107ca906123f0565b60405180910390fd5b60006007600081546107e49061243f565b91905081905590506107f68382611018565b61082483600860009054906101000a900473ffffffffffffffffffffffffffffffffffffffff166001611036565b80915050919050565b61084883838360405180602001604052806000815250610b3c565b505050565b6108556111a5565b61085e8161122c565b50565b6108696111a5565b81816009918261087a92919061263e565b505050565b600061088a82610d1f565b9050919050565b6009805461089e90612316565b80601f01602080910402602001604051908101604052809291908181526020018280546108ca90612316565b80156109175780601f106108ec57610100808354040283529160200191610917565b820191906000526020600020905b8154815290600101906020018083116108fa57829003601f168201915b505050505081565b60008073ffffffffffffffffffffffffffffffffffffffff168273ffffffffffffffffffffffffffffffffffffffff16036109925760006040517f89c62b640000000000000000000000000000000000000000000000000000000081526004016109899190611ea5565b60405180910390fd5b600360008373ffffffffffffffffffffffffffffffffffffffff1673ffffffffffffffffffffffffffffffffffffffff168152602001908152602001600020549050919050565b6109e16111a5565b6109eb60006112b2565b565b6000600754905090565b6000600660009054906101000a900473ffffffffffffffffffffffffffffffffffffffff16905090565b606060018054610a3090612316565b80601f0160208091040260200160405190810160405280929190818152602001828054610a5c90612316565b8015610aa95780601f10610a7e57610100808354040283529160200191610aa9565b820191906000526020600020905b815481529060010190602001808311610a8c57829003601f168201915b5050505050905090565b610abb6111a5565b80600860006101000a81548173ffffffffffffffffffffffffffffffffffffffff021916908373ffffffffffffffffffffffffffffffffffffffff16021790555050565b610b076111a5565b610b12338383611036565b5050565b600860009054906101000a900473ffffffffffffffffffffffffffffffffffffffff1681565b610b47848484610602565b610b5b610b52610de4565b85858585611378565b50505050565b6060610b6b611529565b610b74836115bb565b604051602001610b85929190612770565b6040516020818303038152906040529050919050565b6000600560008473ffffffffffffffffffffffffffffffffffffffff1673ffffffffffffffffffffffffffffffffffffffff16815260200190815260200160002060008373ffffffffffffffffffffffffffffffffffffffff1673ffffffffffffffffffffffffffffffffffffffff16815260200190815260200160002060009054906101000a900460ff16905092915050565b610c376111a5565b600073ffffffffffffffffffffffffffffffffffffffff168173ffffffffffffffffffffffffffffffffffffffff1603610ca95760006040517f1e4fbdf7000000000000000000000000000000000000000000000000000000008152600401610ca09190611ea5565b60405180910390fd5b610cb2816112b2565b50565b60007f01ffc9a7000000000000000000000000000000000000000000000000000000007bffffffffffffffffffffffffffffffffffffffffffffffffffffffff1916827bffffffffffffffffffffffffffffffffffffffffffffffffffffffff1916149050919050565b600080610d2b83611689565b9050600073ffffffffffffffffffffffffffffffffffffffff168173ffffffffffffffffffffffffffffffffffffffff1603610d9e57826040517f7e273289000000000000000000000000000000000000000000000000000000008152600401610d959190611fbb565b60405180910390fd5b80915050919050565b60006004600083815260200190815260200160002060009054906101000a900473ffffffffffffffffffffffffffffffffffffffff169050919050565b600033905090565b610df983838360016116c6565b505050565b600080610e0a84611689565b9050600073ffffffffffffffffffffffffffffffffffffffff168373ffffffffffffffffffffffffffffffffffffffff1614610e4c57610e4b81848661188b565b5b600073ffffffffffffffffffffffffffffffffffffffff168173ffffffffffffffffffffffffffffffffffffffff1614610edd57610e8e6000856000806116c6565b6001600360008373ffffffffffffffffffffffffffffffffffffffff1673ffffffffffffffffffffffffffffffffffffffff168152602001908152602001600020600082825403925050819055505b600073ffffffffffffffffffffffffffffffffffffffff168573ffffffffffffffffffffffffffffffffffffffff1614610f60576001600360008773ffffffffffffffffffffffffffffffffffffffff1673ffffffffffffffffffffffffffffffffffffffff168152602001908152602001600020600082825401925050819055505b846002600086815260200190815260200160002060006101000a81548173ffffffffffffffffffffffffffffffffffffffff021916908373ffffffffffffffffffffffffffffffffffffffff160217905550838573ffffffffffffffffffffffffffffffffffffffff168273ffffffffffffffffffffffffffffffffffffffff167fddf252ad1be2c89b69c2b068fc378daa952ba7f163c4a11628f55a4df523b3ef60405160405180910390a4809150509392505050565b61103282826040518060200160405280600081525061194f565b5050565b600073ffffffffffffffffffffffffffffffffffffffff168273ffffffffffffffffffffffffffffffffffffffff16036110a757816040517f5b08ba1800000000000000000000000000000000000000000000000000000000815260040161109e9190611ea5565b60405180910390fd5b80600560008573ffffffffffffffffffffffffffffffffffffffff1673ffffffffffffffffffffffffffffffffffffffff16815260200190815260200160002060008473ffffffffffffffffffffffffffffffffffffffff1673ffffffffffffffffffffffffffffffffffffffff16815260200190815260200160002060006101000a81548160ff0219169083151502179055508173ffffffffffffffffffffffffffffffffffffffff168373ffffffffffffffffffffffffffffffffffffffff167f17307eab39ab6107e8899845ad3d59bd9653f200f220920489ca2b5937696c31836040516111989190611d34565b60405180910390a3505050565b6111ad610de4565b73ffffffffffffffffffffffffffffffffffffffff166111cb6109f7565b73ffffffffffffffffffffffffffffffffffffffff161461122a576111ee610de4565b6040517f118cdaa70000000000000000000000000000000000000000000000000000000081526004016112219190611ea5565b60405180910390fd5b565b600061123b6000836000610dfe565b9050600073ffffffffffffffffffffffffffffffffffffffff168173ffffffffffffffffffffffffffffffffffffffff16036112ae57816040517f7e2732890000000000000000000000000000000000000000000000000000000081526004016112a59190611fbb565b60405180910390fd5b5050565b6000600660009054906101000a900473ffffffffffffffffffffffffffffffffffffffff16905081600660006101000a81548173ffffffffffffffffffffffffffffffffffffffff021916908373ffffffffffffffffffffffffffffffffffffffff1602179055508173ffffffffffffffffffffffffffffffffffffffff168173ffffffffffffffffffffffffffffffffffffffff167f8be0079c531659141344cd1fd0a4f28419497f9722a3daafe3b4186f6b6457e060405160405180910390a35050565b60008373ffffffffffffffffffffffffffffffffffffffff163b1115611522578273ffffffffffffffffffffffffffffffffffffffff1663150b7a02868685856040518563ffffffff1660e01b81526004016113d794939291906127f8565b6020604051808303816000875af192505050801561141357506040513d601f19601f820116820180604052508101906114109190612859565b60015b611497573d8060008114611443576040519150601f19603f3d011682016040523d82523d6000602084013e611448565b606091505b50600081510361148f57836040517f64a0ae920000000000000000000000000000000000000000000000000000000081526004016114869190611ea5565b60405180910390fd5b805181602001fd5b63150b7a0260e01b7bffffffffffffffffffffffffffffffffffffffffffffffffffffffff1916817bffffffffffffffffffffffffffffffffffffffffffffffffffffffff19161461152057836040517f64a0ae920000000000000000000000000000000000000000000000000000000081526004016115179190611ea5565b60405180910390fd5b505b5050505050565b60606009805461153890612316565b80601f016020809104026020016040519081016040528092919081815260200182805461156490612316565b80156115b15780601f10611586576101008083540402835291602001916115b1565b820191906000526020600020905b81548152906001019060200180831161159457829003601f168201915b5050505050905090565b6060600060016115ca84611973565b01905060008167ffffffffffffffff8111156115e9576115e86120f9565b5b6040519080825280601f01601f19166020018201604052801561161b5781602001600182028036833780820191505090505b509050600082602001820190505b60011561167e578080600190039150507f3031323334353637383961626364656600000000000000000000000000000000600a86061a8153600a858161167257611671612886565b5b04945060008503611629575b819350505050919050565b60006002600083815260200190815260200160002060009054906101000a900473ffffffffffffffffffffffffffffffffffffffff169050919050565b80806116ff5750600073ffffffffffffffffffffffffffffffffffffffff168273ffffffffffffffffffffffffffffffffffffffff1614155b1561183357600061170f84610d1f565b9050600073ffffffffffffffffffffffffffffffffffffffff168373ffffffffffffffffffffffffffffffffffffffff161415801561177a57508273ffffffffffffffffffffffffffffffffffffffff168173ffffffffffffffffffffffffffffffffffffffff1614155b801561178d575061178b8184610b9b565b155b156117cf57826040517fa9fbf51f0000000000000000000000000000000000000000000000000000000081526004016117c69190611ea5565b60405180910390fd5b811561183157838573ffffffffffffffffffffffffffffffffffffffff168273ffffffffffffffffffffffffffffffffffffffff167f8c5be1e5ebec7d5bd14f71427d1e84f3dd0314c0f7b2291e5b200ac8c7c3b92560405160405180910390a45b505b836004600085815260200190815260200160002060006101000a81548173ffffffffffffffffffffffffffffffffffffffff021916908373ffffffffffffffffffffffffffffffffffffffff16021790555050505050565b611896838383611ac6565b61194a57600073ffffffffffffffffffffffffffffffffffffffff168373ffffffffffffffffffffffffffffffffffffffff160361190b57806040517f7e2732890000000000000000000000000000000000000000000000000000000081526004016119029190611fbb565b60405180910390fd5b81816040517f177e802f0000000000000000000000000000000000000000000000000000000081526004016119419291906128b5565b60405180910390fd5b505050565b6119598383611b87565b61196e611964610de4565b6000858585611378565b505050565b600080600090507a184f03e93ff9f4daa797ed6e38ed64bf6a1f01000000000000000083106119d1577a184f03e93ff9f4daa797ed6e38ed64bf6a1f01000000000000000083816119c7576119c6612886565b5b0492506040810190505b6d04ee2d6d415b85acef81000000008310611a0e576d04ee2d6d415b85acef81000000008381611a0457611a03612886565b5b0492506020810190505b662386f26fc100008310611a3d57662386f26fc100008381611a3357611a32612886565b5b0492506010810190505b6305f5e1008310611a66576305f5e1008381611a5c57611a5b612886565b5b0492506008810190505b6127108310611a8b576127108381611a8157611a80612886565b5b0492506004810190505b60648310611aae5760648381611aa457611aa3612886565b5b0492506002810190505b600a8310611abd576001810190505b80915050919050565b60008073ffffffffffffffffffffffffffffffffffffffff168373ffffffffffffffffffffffffffffffffffffffff1614158015611b7e57508273ffffffffffffffffffffffffffffffffffffffff168473ffffffffffffffffffffffffffffffffffffffff161480611b3f5750611b3e8484610b9b565b5b80611b7d57508273ffffffffffffffffffffffffffffffffffffffff16611b6583610da7565b73ffffffffffffffffffffffffffffffffffffffff16145b5b90509392505050565b600073ffffffffffffffffffffffffffffffffffffffff168273ffffffffffffffffffffffffffffffffffffffff1603611bf95760006040517f64a0ae92000000000000000000000000000000000000000000000000000000008152600401611bf09190611ea5565b60405180910390fd5b6000611c0783836000610dfe565b9050600073ffffffffffffffffffffffffffffffffffffffff168173ffffffffffffffffffffffffffffffffffffffff1614611c7b5760006040517f73c6ac6e000000000000000000000000000000000000000000000000000000008152600401611c729190611ea5565b60405180910390fd5b505050565b6000604051905090565b600080fd5b600080fd5b60007fffffffff0000000000000000000000000000000000000000000000000000000082169050919050565b611cc981611c94565b8114611cd457600080fd5b50565b600081359050611ce681611cc0565b92915050565b600060208284031215611d0257611d01611c8a565b5b6000611d1084828501611cd7565b91505092915050565b60008115159050919050565b611d2e81611d19565b82525050565b6000602082019050611d496000830184611d25565b92915050565b600081519050919050565b600082825260208201905092915050565b60005b83811015611d89578082015181840152602081019050611d6e565b60008484015250505050565b6000601f19601f8301169050919050565b6000611db182611d4f565b611dbb8185611d5a565b9350611dcb818560208601611d6b565b611dd481611d95565b840191505092915050565b60006020820190508181036000830152611df98184611da6565b905092915050565b6000819050919050565b611e1481611e01565b8114611e1f57600080fd5b50565b600081359050611e3181611e0b565b92915050565b600060208284031215611e4d57611e4c611c8a565b5b6000611e5b84828501611e22565b91505092915050565b600073ffffffffffffffffffffffffffffffffffffffff82169050919050565b6000611e8f82611e64565b9050919050565b611e9f81611e84565b82525050565b6000602082019050611eba6000830184611e96565b92915050565b611ec981611e84565b8114611ed457600080fd5b50565b600081359050611ee681611ec0565b92915050565b60008060408385031215611f0357611f02611c8a565b5b6000611f1185828601611ed7565b9250506020611f2285828601611e22565b9150509250929050565b600080600060608486031215611f4557611f44611c8a565b5b6000611f5386828701611ed7565b9350506020611f6486828701611ed7565b9250506040611f7586828701611e22565b9150509250925092565b600060208284031215611f9557611f94611c8a565b5b6000611fa384828501611ed7565b91505092915050565b611fb581611e01565b82525050565b6000602082019050611fd06000830184611fac565b92915050565b600080fd5b600080fd5b600080fd5b60008083601f840112611ffb57611ffa611fd6565b5b8235905067ffffffffffffffff81111561201857612017611fdb565b5b60208301915083600182028301111561203457612033611fe0565b5b9250929050565b6000806020838503121561205257612051611c8a565b5b600083013567ffffffffffffffff8111156120705761206f611c8f565b5b61207c85828601611fe5565b92509250509250929050565b61209181611d19565b811461209c57600080fd5b50565b6000813590506120ae81612088565b92915050565b600080604083850312156120cb576120ca611c8a565b5b60006120d985828601611ed7565b92505060206120ea8582860161209f565b9150509250929050565b600080fd5b7f4e487b7100000000000000000000000000000000000000000000000000000000600052604160045260246000fd5b61213182611d95565b810181811067ffffffffffffffff821117156121505761214f6120f9565b5b80604052505050565b6000612163611c80565b905061216f8282612128565b919050565b600067ffffffffffffffff82111561218f5761218e6120f9565b5b61219882611d95565b9050602081019050919050565b82818337600083830152505050565b60006121c76121c284612174565b612159565b9050828152602081018484840111156121e3576121e26120f4565b5b6121ee8482856121a5565b509392505050565b600082601f83011261220b5761220a611fd6565b5b813561221b8482602086016121b4565b91505092915050565b6000806000806080858703121561223e5761223d611c8a565b5b600061224c87828801611ed7565b945050602061225d87828801611ed7565b935050604061226e87828801611e22565b925050606085013567ffffffffffffffff81111561228f5761228e611c8f565b5b61229b878288016121f6565b91505092959194509250565b600080604083850312156122be576122bd611c8a565b5b60006122cc85828601611ed7565b92505060206122dd85828601611ed7565b9150509250929050565b7f4e487b7100000000000000000000000000000000000000000000000000000000600052602260045260246000fd5b6000600282049050600182168061232e57607f821691505b602082108103612341576123406122e7565b5b50919050565b600060608201905061235c6000830186611e96565b6123696020830185611fac565b6123766040830184611e96565b949350505050565b7f4f6e6c7920746865206f776e6572206f7220617574686f72697a656420636f6e60008201527f74726163742063616e206d696e742e0000000000000000000000000000000000602082015250565b60006123da602f83611d5a565b91506123e58261237e565b604082019050919050565b60006020820190508181036000830152612409816123cd565b9050919050565b7f4e487b7100000000000000000000000000000000000000000000000000000000600052601160045260246000fd5b600061244a82611e01565b91507fffffffffffffffffffffffffffffffffffffffffffffffffffffffffffffffff820361247c5761247b612410565b5b600182019050919050565b600082905092915050565b60008190508160005260206000209050919050565b60006020601f8301049050919050565b600082821b905092915050565b6000600883026124f47fffffffffffffffffffffffffffffffffffffffffffffffffffffffffffffffff826124b7565b6124fe86836124b7565b95508019841693508086168417925050509392505050565b6000819050919050565b600061253b61253661253184611e01565b612516565b611e01565b9050919050565b6000819050919050565b61255583612520565b61256961256182612542565b8484546124c4565b825550505050565b600090565b61257e612571565b61258981848461254c565b505050565b5b818110156125ad576125a2600082612576565b60018101905061258f565b5050565b601f8211156125f2576125c381612492565b6125cc846124a7565b810160208510156125db578190505b6125ef6125e7856124a7565b83018261258e565b50505b505050565b600082821c905092915050565b6000612615600019846008026125f7565b1980831691505092915050565b600061262e8383612604565b9150826002028217905092915050565b6126488383612487565b67ffffffffffffffff811115612661576126606120f9565b5b61266b8254612316565b6126768282856125b1565b6000601f8311600181146126a55760008415612693578287013590505b61269d8582612622565b865550612705565b601f1984166126b386612492565b60005b828110156126db578489013582556001820191506020850194506020810190506126b6565b868310156126f857848901356126f4601f891682612604565b8355505b6001600288020188555050505b50505050505050565b600081905092915050565b600061272482611d4f565b61272e818561270e565b935061273e818560208601611d6b565b80840191505092915050565b7f2e6a736f6e000000000000000000000000000000000000000000000000000000815250565b600061277c8285612719565b91506127888284612719565b91506127938261274a565b6005820191508190509392505050565b600081519050919050565b600082825260208201905092915050565b60006127ca826127a3565b6127d481856127ae565b93506127e4818560208601611d6b565b6127ed81611d95565b840191505092915050565b600060808201905061280d6000830187611e96565b61281a6020830186611e96565b6128276040830185611fac565b818103606083015261283981846127bf565b905095945050505050565b60008151905061285381611cc0565b92915050565b60006020828403121561286f5761286e611c8a565b5b600061287d84828501612844565b91505092915050565b7f4e487b7100000000000000000000000000000000000000000000000000000000600052601260045260246000fd5b60006040820190506128ca6000830185611e96565b6128d76020830184611fac565b939250505056fea26469706673582212208e31f233cc9988fbef46ea10d7f0df4199229c5fa62a0aa1a1ad37a781f0ca5864736f6c634300081b0033",
  "linkReferences": {},
  "deployedLinkReferences": {}
}