{
    "_format": "hh-sol-artifact-1",
    "contractName": "Destripe",
    "sourceName": "contracts/Destripe.sol",
    "abi": [
        {
            "inputs": [],
            "stateMutability": "nonpayable",
            "type": "constructor"
        },
        {
            "inputs": [
                {
                    "internalType": "address",
                    "name": "owner",
                    "type": "address"
                }
            ],
            "name": "OwnableInvalidOwner",
            "type": "error"
        },
        {
            "inputs": [
                {
                    "internalType": "address",
                    "name": "account",
                    "type": "address"
                }
            ],
            "name": "OwnableUnauthorizedAccount",
            "type": "error"
        },
        {
            "anonymous": false,
            "inputs": [
                {
                    "indexed": true,
                    "internalType": "address",
                    "name": "customer",
                    "type": "address"
                },
                {
                    "indexed": false,
                    "internalType": "uint256",
                    "name": "tokenId",
                    "type": "uint256"
                },
                {
                    "indexed": false,
                    "internalType": "uint256",
                    "name": "date",
                    "type": "uint256"
                }
            ],
            "name": "Granted",
            "type": "event"
        },
        {
            "anonymous": false,
            "inputs": [
                {
                    "indexed": true,
                    "internalType": "address",
                    "name": "previousOwner",
                    "type": "address"
                },
                {
                    "indexed": true,
                    "internalType": "address",
                    "name": "newOwner",
                    "type": "address"
                }
            ],
            "name": "OwnershipTransferred",
            "type": "event"
        },
        {
            "anonymous": false,
            "inputs": [
                {
                    "indexed": true,
                    "internalType": "address",
                    "name": "customer",
                    "type": "address"
                },
                {
                    "indexed": false,
                    "internalType": "uint256",
                    "name": "amount",
                    "type": "uint256"
                },
                {
                    "indexed": false,
                    "internalType": "uint256",
                    "name": "date",
                    "type": "uint256"
                }
            ],
            "name": "Paid",
            "type": "event"
        },
        {
            "anonymous": false,
            "inputs": [
                {
                    "indexed": true,
                    "internalType": "address",
                    "name": "customer",
                    "type": "address"
                },
                {
                    "indexed": false,
                    "internalType": "uint256",
                    "name": "tokenId",
                    "type": "uint256"
                },
                {
                    "indexed": false,
                    "internalType": "uint256",
                    "name": "date",
                    "type": "uint256"
                }
            ],
            "name": "Removed",
            "type": "event"
        },
        {
            "anonymous": false,
            "inputs": [
                {
                    "indexed": true,
                    "internalType": "address",
                    "name": "customer",
                    "type": "address"
                },
                {
                    "indexed": false,
                    "internalType": "uint256",
                    "name": "tokenId",
                    "type": "uint256"
                },
                {
                    "indexed": false,
                    "internalType": "uint256",
                    "name": "date",
                    "type": "uint256"
                }
            ],
            "name": "Revoked",
            "type": "event"
        },
        {
            "inputs": [],
            "name": "acceptedToken",
            "outputs": [
                {
                    "internalType": "contract IERC20",
                    "name": "",
                    "type": "address"
                }
            ],
            "stateMutability": "view",
            "type": "function"
        },
        {
            "inputs": [
                {
                    "internalType": "uint256",
                    "name": "",
                    "type": "uint256"
                }
            ],
            "name": "customers",
            "outputs": [
                {
                    "internalType": "address",
                    "name": "",
                    "type": "address"
                }
            ],
            "stateMutability": "view",
            "type": "function"
        },
        {
            "inputs": [],
            "name": "getCustomers",
            "outputs": [
                {
                    "internalType": "address[]",
                    "name": "",
                    "type": "address[]"
                }
            ],
            "stateMutability": "view",
            "type": "function"
        },
        {
            "inputs": [],
            "name": "monthlyFee",
            "outputs": [
                {
                    "internalType": "uint256",
                    "name": "",
                    "type": "uint256"
                }
            ],
            "stateMutability": "view",
            "type": "function"
        },
        {
            "inputs": [],
            "name": "nftCollection",
            "outputs": [
                {
                    "internalType": "contract INFTCollection",
                    "name": "",
                    "type": "address"
                }
            ],
            "stateMutability": "view",
            "type": "function"
        },
        {
            "inputs": [
                {
                    "internalType": "address",
                    "name": "",
                    "type": "address"
                },
                {
                    "internalType": "address",
                    "name": "",
                    "type": "address"
                },
                {
                    "internalType": "uint256",
                    "name": "",
                    "type": "uint256"
                },
                {
                    "internalType": "bytes",
                    "name": "",
                    "type": "bytes"
                }
            ],
            "name": "onERC721Received",
            "outputs": [
                {
                    "internalType": "bytes4",
                    "name": "",
                    "type": "bytes4"
                }
            ],
            "stateMutability": "nonpayable",
            "type": "function"
        },
        {
            "inputs": [],
            "name": "owner",
            "outputs": [
                {
                    "internalType": "address",
                    "name": "",
                    "type": "address"
                }
            ],
            "stateMutability": "view",
            "type": "function"
        },
        {
            "inputs": [
                {
                    "internalType": "address",
                    "name": "customer",
                    "type": "address"
                }
            ],
            "name": "payMonthlyFee",
            "outputs": [],
            "stateMutability": "nonpayable",
            "type": "function"
        },
        {
            "inputs": [
                {
                    "internalType": "address",
                    "name": "",
                    "type": "address"
                }
            ],
            "name": "payments",
            "outputs": [
                {
                    "internalType": "uint256",
                    "name": "tokenId",
                    "type": "uint256"
                },
                {
                    "internalType": "uint256",
                    "name": "nextPayment",
                    "type": "uint256"
                },
                {
                    "internalType": "uint256",
                    "name": "index",
                    "type": "uint256"
                }
            ],
            "stateMutability": "view",
            "type": "function"
        },
        {
            "inputs": [
                {
                    "internalType": "address",
                    "name": "customer",
                    "type": "address"
                }
            ],
            "name": "removeCustomer",
            "outputs": [],
            "stateMutability": "nonpayable",
            "type": "function"
        },
        {
            "inputs": [],
            "name": "renounceOwnership",
            "outputs": [],
            "stateMutability": "nonpayable",
            "type": "function"
        },
        {
            "inputs": [
                {
                    "internalType": "address",
                    "name": "tokenAddress",
                    "type": "address"
                }
            ],
            "name": "setAcceptedToken",
            "outputs": [],
            "stateMutability": "nonpayable",
            "type": "function"
        },
        {
            "inputs": [
                {
                    "internalType": "uint256",
                    "name": "newMonthlyFee",
                    "type": "uint256"
                }
            ],
            "name": "setMonthlyFee",
            "outputs": [],
            "stateMutability": "nonpayable",
            "type": "function"
        },
        {
            "inputs": [
                {
                    "internalType": "address",
                    "name": "nftAddress",
                    "type": "address"
                }
            ],
            "name": "setNFTCollection",
            "outputs": [],
            "stateMutability": "nonpayable",
            "type": "function"
        },
        {
            "inputs": [
                {
                    "internalType": "address",
                    "name": "newOwner",
                    "type": "address"
                }
            ],
            "name": "transferOwnership",
            "outputs": [],
            "stateMutability": "nonpayable",
            "type": "function"
        }
    ],
    "bytecode": "0x608060405266038d7ea4c6800060035534801561001b57600080fd5b5033600073ffffffffffffffffffffffffffffffffffffffff168173ffffffffffffffffffffffffffffffffffffffff160361008f5760006040517f1e4fbdf700000000000000000000000000000000000000000000000000000000815260040161008691906101a9565b60405180910390fd5b61009e816100a460201b60201c565b506101c4565b60008060009054906101000a900473ffffffffffffffffffffffffffffffffffffffff169050816000806101000a81548173ffffffffffffffffffffffffffffffffffffffff021916908373ffffffffffffffffffffffffffffffffffffffff1602179055508173ffffffffffffffffffffffffffffffffffffffff168173ffffffffffffffffffffffffffffffffffffffff167f8be0079c531659141344cd1fd0a4f28419497f9722a3daafe3b4186f6b6457e060405160405180910390a35050565b600073ffffffffffffffffffffffffffffffffffffffff82169050919050565b600061019382610168565b9050919050565b6101a381610188565b82525050565b60006020820190506101be600083018461019a565b92915050565b611c53806101d36000396000f3fe608060405234801561001057600080fd5b50600436106100f55760003560e01c80638da5cb5b11610097578063c0abda2a11610066578063c0abda2a14610238578063e2982c2114610268578063f1ba71271461029a578063f2fde38b146102b8576100f5565b80638da5cb5b146101c65780638eb06ccf146101e4578063ad450f2a14610200578063b14420f91461021c576100f5565b80636588103b116100d35780636588103b14610164578063715018a6146101825780637487f5281461018c5780638cfd3e40146101a8576100f5565b8063150b7a02146100fa5780632b4fd7791461012a578063451c3d8014610146575b600080fd5b610114600480360381019061010f9190611622565b6102d4565b60405161012191906116e0565b60405180910390f35b610144600480360381019061013f91906116fb565b6102e8565b005b61014e610334565b60405161015b9190611787565b60405180910390f35b61016c61035a565b60405161017991906117c3565b60405180910390f35b61018a610380565b005b6101a660048036038101906101a191906116fb565b610394565b005b6101b06103e0565b6040516101bd91906117ed565b60405180910390f35b6101ce6103e6565b6040516101db9190611817565b60405180910390f35b6101fe60048036038101906101f991906116fb565b61040f565b005b61021a60048036038101906102159190611832565b61061c565b005b610236600480360381019061023191906116fb565b61062e565b005b610252600480360381019061024d9190611832565b611164565b60405161025f9190611817565b60405180910390f35b610282600480360381019061027d91906116fb565b6111a3565b6040516102919392919061185f565b60405180910390f35b6102a26111cd565b6040516102af9190611954565b60405180910390f35b6102d260048036038101906102cd91906116fb565b61125b565b005b600063150b7a0260e01b9050949350505050565b6102f06112e1565b80600160006101000a81548173ffffffffffffffffffffffffffffffffffffffff021916908373ffffffffffffffffffffffffffffffffffffffff16021790555050565b600260009054906101000a900473ffffffffffffffffffffffffffffffffffffffff1681565b600160009054906101000a900473ffffffffffffffffffffffffffffffffffffffff1681565b6103886112e1565b6103926000611368565b565b61039c6112e1565b80600260006101000a81548173ffffffffffffffffffffffffffffffffffffffff021916908373ffffffffffffffffffffffffffffffffffffffff16021790555050565b60035481565b60008060009054906101000a900473ffffffffffffffffffffffffffffffffffffffff16905090565b6104176112e1565b6000600460008373ffffffffffffffffffffffffffffffffffffffff1673ffffffffffffffffffffffffffffffffffffffff168152602001908152602001600020600001549050600160009054906101000a900473ffffffffffffffffffffffffffffffffffffffff1673ffffffffffffffffffffffffffffffffffffffff166342966c68826040518263ffffffff1660e01b81526004016104b991906117ed565b600060405180830381600087803b1580156104d357600080fd5b505af11580156104e7573d6000803e3d6000fd5b505050506005600460008473ffffffffffffffffffffffffffffffffffffffff1673ffffffffffffffffffffffffffffffffffffffff168152602001908152602001600020600201548154811061054157610540611976565b5b9060005260206000200160006101000a81549073ffffffffffffffffffffffffffffffffffffffff0219169055600460008373ffffffffffffffffffffffffffffffffffffffff1673ffffffffffffffffffffffffffffffffffffffff1681526020019081526020016000206000808201600090556001820160009055600282016000905550508173ffffffffffffffffffffffffffffffffffffffff167fe3d0f1a4676b30f6f1603009186ab4512118de422f073c944d533e06345b5a5882426040516106109291906119a5565b60405180910390a25050565b6106246112e1565b8060038190555050565b6106366112e1565b600080600460008473ffffffffffffffffffffffffffffffffffffffff1673ffffffffffffffffffffffffffffffffffffffff16815260200190815260200160002060010154149050600080600460008573ffffffffffffffffffffffffffffffffffffffff1673ffffffffffffffffffffffffffffffffffffffff16815260200190815260200160002060010154118015610714575042600460008573ffffffffffffffffffffffffffffffffffffffff1673ffffffffffffffffffffffffffffffffffffffff1681526020019081526020016000206001015411155b90506000600354600260009054906101000a900473ffffffffffffffffffffffffffffffffffffffff1673ffffffffffffffffffffffffffffffffffffffff166370a08231866040518263ffffffff1660e01b81526004016107769190611817565b602060405180830381865afa158015610793573d6000803e3d6000fd5b505050506040513d601f19601f820116820180604052508101906107b791906119e3565b101590506000600354600260009054906101000a900473ffffffffffffffffffffffffffffffffffffffff1673ffffffffffffffffffffffffffffffffffffffff1663dd62ed3e87306040518363ffffffff1660e01b815260040161081d929190611a10565b602060405180830381865afa15801561083a573d6000803e3d6000fd5b505050506040513d601f19601f8201168201806040525081019061085e91906119e3565b1015905081801561086c5750805b15610fad578315610b2f57600160009054906101000a900473ffffffffffffffffffffffffffffffffffffffff1673ffffffffffffffffffffffffffffffffffffffff166340d097c3866040518263ffffffff1660e01b81526004016108d29190611817565b6020604051808303816000875af11580156108f1573d6000803e3d6000fd5b505050506040513d601f19601f8201168201806040525081019061091591906119e3565b50600160009054906101000a900473ffffffffffffffffffffffffffffffffffffffff1673ffffffffffffffffffffffffffffffffffffffff166383c4c00d6040518163ffffffff1660e01b8152600401602060405180830381865afa158015610983573d6000803e3d6000fd5b505050506040513d601f19601f820116820180604052508101906109a791906119e3565b600460008773ffffffffffffffffffffffffffffffffffffffff1673ffffffffffffffffffffffffffffffffffffffff16815260200190815260200160002060000181905550600580549050600460008773ffffffffffffffffffffffffffffffffffffffff1673ffffffffffffffffffffffffffffffffffffffff168152602001908152602001600020600201819055506005859080600181540180825580915050600190039060005260206000200160009091909190916101000a81548173ffffffffffffffffffffffffffffffffffffffff021916908373ffffffffffffffffffffffffffffffffffffffff1602179055508473ffffffffffffffffffffffffffffffffffffffff167f830cad818db7fa43ac6053f645136c5d74a8a18439a8e0ed6735fbddff43fdd6600460008873ffffffffffffffffffffffffffffffffffffffff1673ffffffffffffffffffffffffffffffffffffffff1681526020019081526020016000206000015442604051610b269291906119a5565b60405180910390a25b600260009054906101000a900473ffffffffffffffffffffffffffffffffffffffff1673ffffffffffffffffffffffffffffffffffffffff166323b872dd86306003546040518463ffffffff1660e01b8152600401610b9093929190611a39565b6020604051808303816000875af1158015610baf573d6000803e3d6000fd5b505050506040513d601f19601f82011682018060405250810190610bd39190611aa8565b508315610c34574262278d00610be99190611b04565b600460008773ffffffffffffffffffffffffffffffffffffffff1673ffffffffffffffffffffffffffffffffffffffff16815260200190815260200160002060010181905550610c91565b62278d00600460008773ffffffffffffffffffffffffffffffffffffffff1673ffffffffffffffffffffffffffffffffffffffff1681526020019081526020016000206001016000828254610c899190611b04565b925050819055505b8473ffffffffffffffffffffffffffffffffffffffff167fdf9a51129930649214df58f542322c245372c6f2fa6fc3c9b40d927c597cd23060035442604051610cdb9291906119a5565b60405180910390a242600460008773ffffffffffffffffffffffffffffffffffffffff1673ffffffffffffffffffffffffffffffffffffffff16815260200190815260200160002060010154118015610e3d57508473ffffffffffffffffffffffffffffffffffffffff16600160009054906101000a900473ffffffffffffffffffffffffffffffffffffffff1673ffffffffffffffffffffffffffffffffffffffff16636352211e600460008973ffffffffffffffffffffffffffffffffffffffff1673ffffffffffffffffffffffffffffffffffffffff168152602001908152602001600020600001546040518263ffffffff1660e01b8152600401610de391906117ed565b602060405180830381865afa158015610e00573d6000803e3d6000fd5b505050506040513d601f19601f82011682018060405250810190610e249190611b4d565b73ffffffffffffffffffffffffffffffffffffffff1614155b15610fa857600160009054906101000a900473ffffffffffffffffffffffffffffffffffffffff1673ffffffffffffffffffffffffffffffffffffffff166342842e0e3087600460008a73ffffffffffffffffffffffffffffffffffffffff1673ffffffffffffffffffffffffffffffffffffffff168152602001908152602001600020600001546040518463ffffffff1660e01b8152600401610ee393929190611a39565b600060405180830381600087803b158015610efd57600080fd5b505af1158015610f11573d6000803e3d6000fd5b505050508473ffffffffffffffffffffffffffffffffffffffff167f830cad818db7fa43ac6053f645136c5d74a8a18439a8e0ed6735fbddff43fdd6600460008873ffffffffffffffffffffffffffffffffffffffff1673ffffffffffffffffffffffffffffffffffffffff1681526020019081526020016000206000015442604051610f9f9291906119a5565b60405180910390a25b61115c565b821561112157600160009054906101000a900473ffffffffffffffffffffffffffffffffffffffff1673ffffffffffffffffffffffffffffffffffffffff166342842e0e8630600460008a73ffffffffffffffffffffffffffffffffffffffff1673ffffffffffffffffffffffffffffffffffffffff168152602001908152602001600020600001546040518463ffffffff1660e01b815260040161105493929190611a39565b600060405180830381600087803b15801561106e57600080fd5b505af1158015611082573d6000803e3d6000fd5b505050508473ffffffffffffffffffffffffffffffffffffffff167f486e02409c32040cba4d1675ead85cba092960333a3e8b18cb06e235cef29bfc600460008873ffffffffffffffffffffffffffffffffffffffff1673ffffffffffffffffffffffffffffffffffffffff16815260200190815260200160002060000154426040516111109291906119a5565b60405180910390a250505050611161565b6040517f08c379a000000000000000000000000000000000000000000000000000000000815260040161115390611bfd565b60405180910390fd5b505050505b50565b6005818154811061117457600080fd5b906000526020600020016000915054906101000a900473ffffffffffffffffffffffffffffffffffffffff1681565b60046020528060005260406000206000915090508060000154908060010154908060020154905083565b6060600580548060200260200160405190810160405280929190818152602001828054801561125157602002820191906000526020600020905b8160009054906101000a900473ffffffffffffffffffffffffffffffffffffffff1673ffffffffffffffffffffffffffffffffffffffff1681526020019060010190808311611207575b5050505050905090565b6112636112e1565b600073ffffffffffffffffffffffffffffffffffffffff168173ffffffffffffffffffffffffffffffffffffffff16036112d55760006040517f1e4fbdf70000000000000000000000000000000000000000000000000000000081526004016112cc9190611817565b60405180910390fd5b6112de81611368565b50565b6112e961142c565b73ffffffffffffffffffffffffffffffffffffffff166113076103e6565b73ffffffffffffffffffffffffffffffffffffffff16146113665761132a61142c565b6040517f118cdaa700000000000000000000000000000000000000000000000000000000815260040161135d9190611817565b60405180910390fd5b565b60008060009054906101000a900473ffffffffffffffffffffffffffffffffffffffff169050816000806101000a81548173ffffffffffffffffffffffffffffffffffffffff021916908373ffffffffffffffffffffffffffffffffffffffff1602179055508173ffffffffffffffffffffffffffffffffffffffff168173ffffffffffffffffffffffffffffffffffffffff167f8be0079c531659141344cd1fd0a4f28419497f9722a3daafe3b4186f6b6457e060405160405180910390a35050565b600033905090565b6000604051905090565b600080fd5b600080fd5b600073ffffffffffffffffffffffffffffffffffffffff82169050919050565b600061147382611448565b9050919050565b61148381611468565b811461148e57600080fd5b50565b6000813590506114a08161147a565b92915050565b6000819050919050565b6114b9816114a6565b81146114c457600080fd5b50565b6000813590506114d6816114b0565b92915050565b600080fd5b600080fd5b6000601f19601f8301169050919050565b7f4e487b7100000000000000000000000000000000000000000000000000000000600052604160045260246000fd5b61152f826114e6565b810181811067ffffffffffffffff8211171561154e5761154d6114f7565b5b80604052505050565b6000611561611434565b905061156d8282611526565b919050565b600067ffffffffffffffff82111561158d5761158c6114f7565b5b611596826114e6565b9050602081019050919050565b82818337600083830152505050565b60006115c56115c084611572565b611557565b9050828152602081018484840111156115e1576115e06114e1565b5b6115ec8482856115a3565b509392505050565b600082601f830112611609576116086114dc565b5b81356116198482602086016115b2565b91505092915050565b6000806000806080858703121561163c5761163b61143e565b5b600061164a87828801611491565b945050602061165b87828801611491565b935050604061166c878288016114c7565b925050606085013567ffffffffffffffff81111561168d5761168c611443565b5b611699878288016115f4565b91505092959194509250565b60007fffffffff0000000000000000000000000000000000000000000000000000000082169050919050565b6116da816116a5565b82525050565b60006020820190506116f560008301846116d1565b92915050565b6000602082840312156117115761171061143e565b5b600061171f84828501611491565b91505092915050565b6000819050919050565b600061174d61174861174384611448565b611728565b611448565b9050919050565b600061175f82611732565b9050919050565b600061177182611754565b9050919050565b61178181611766565b82525050565b600060208201905061179c6000830184611778565b92915050565b60006117ad82611754565b9050919050565b6117bd816117a2565b82525050565b60006020820190506117d860008301846117b4565b92915050565b6117e7816114a6565b82525050565b600060208201905061180260008301846117de565b92915050565b61181181611468565b82525050565b600060208201905061182c6000830184611808565b92915050565b6000602082840312156118485761184761143e565b5b6000611856848285016114c7565b91505092915050565b600060608201905061187460008301866117de565b61188160208301856117de565b61188e60408301846117de565b949350505050565b600081519050919050565b600082825260208201905092915050565b6000819050602082019050919050565b6118cb81611468565b82525050565b60006118dd83836118c2565b60208301905092915050565b6000602082019050919050565b600061190182611896565b61190b81856118a1565b9350611916836118b2565b8060005b8381101561194757815161192e88826118d1565b9750611939836118e9565b92505060018101905061191a565b5085935050505092915050565b6000602082019050818103600083015261196e81846118f6565b905092915050565b7f4e487b7100000000000000000000000000000000000000000000000000000000600052603260045260246000fd5b60006040820190506119ba60008301856117de565b6119c760208301846117de565b9392505050565b6000815190506119dd816114b0565b92915050565b6000602082840312156119f9576119f861143e565b5b6000611a07848285016119ce565b91505092915050565b6000604082019050611a256000830185611808565b611a326020830184611808565b9392505050565b6000606082019050611a4e6000830186611808565b611a5b6020830185611808565b611a6860408301846117de565b949350505050565b60008115159050919050565b611a8581611a70565b8114611a9057600080fd5b50565b600081519050611aa281611a7c565b92915050565b600060208284031215611abe57611abd61143e565b5b6000611acc84828501611a93565b91505092915050565b7f4e487b7100000000000000000000000000000000000000000000000000000000600052601160045260246000fd5b6000611b0f826114a6565b9150611b1a836114a6565b9250828201905080821115611b3257611b31611ad5565b5b92915050565b600081519050611b478161147a565b92915050565b600060208284031215611b6357611b6261143e565b5b6000611b7184828501611b38565b91505092915050565b600082825260208201905092915050565b7f496e73756666696369656e742062616c616e636520616e642f6f7220616c6c6f60008201527f77616e63652e0000000000000000000000000000000000000000000000000000602082015250565b6000611be7602683611b7a565b9150611bf282611b8b565b604082019050919050565b60006020820190508181036000830152611c1681611bda565b905091905056fea26469706673582212209599d8090400bbb28be19e19c77be8d8f53c2a04223256bc2c62dc552f7f45e064736f6c634300081b0033",
    "linkReferences": {},
    "deployedLinkReferences": {}
}